:0C0000000C9449000C9400000C940000CB
:10000C000C9400000C94F9000C9400000C9400006B
:10001C000C9400000C9400000C9400000C947600DE
:10002C000C9400000C9400000C9400000C94000044
:10003C000C9400000C9400000C9400000C94000034
:10004C000C9400000C940000400079002400300057
:10005C00190012000200780000001000EF000000F0
:10006C00FFFFFFFFFFFF010204084000790024009E
:10007C0030001900120002007800000010000A0085
:10008C00040068000000F894EE27ECBBF1E0FBBF25
:10009C00EBBFE5BF8DE0A2E0BB27ED938A95E9F7B6
:1000AC0080E098E0A0E6ED930197E9F7EAE8F0E04C
:1000BC0085919591009761F0A591B591059015905A
:1000CC00BF01F00105900D920197E1F7FB01F0CF14
:1000DC00EFE5EDBFE8E0EEBFC0E6D2E00C948C019A
:1000EC00EA93FA93EFB7EA93C898C99ACA9ACB9A4B
:1000FC00CC9905C0CC9BFECFE7E0F0E06F01CD9929
:10010C0005C0CD9BFECFE8E0F0E06F01CE9905C0B5
:10011C00CE9BFECFE9E0F0E06F01CF9905C0CF9BFD
:10012C00FECFEAE0F0E06F01C89AC998CA9ACB9A60
:10013C00CC9905C0CC9BFECFE4E0F0E06F01CD99EB
:10014C0005C0CD9BFECFE5E0F0E06F01CE9904C079
:10015C00CE9BFECFEDEFE5BBCF9905C0CF9BFECF7D
:10016C00EBE0F0E06F01C89AC99ACA98CB9ACC9987
:10017C0005C0CC9BFECFE1E0F0E06F01CD9905C04E
:10018C00CD9BFECFE2E0F0E06F01CE9905C0CE9B97
:10019C00FECFE3E0F0E06F01CF9905C0CF9BFECF1F
:1001AC00ECE0F0E06F01C89AC99ACA9ACB98CC9946
:1001BC0005C0CC9BFECFEDE0F0E06F01CD9904C003
:1001CC00CD9BFECFCC24DD24CE9905C0CE9BFECF9B
:1001DC00EEE0F0E06F01CF9905C0CF9BFECFEFE0D2
:1001EC00F0E06F018EC0EA93FA93EFB7EA93C89AE6
:1001FC00C898C99ACA9ACB9ACC9903C0E7E0F0E0A8
:10020C006F01CD9903C0E8E0F0E06F01CE9906C014
:10021C00CE9BFECFE9E0F0E06F0173C0CF9906C032
:10022C00CF9BFECFEAE0F0E06F016BC0C89AC99893
:10023C00CA9ACB9ACC9906C0CC9BFECFE4E0F0E0F6
:10024C006F015FC0CD9906C0CD9BFECFE5E0F0E01D
:10025C006F0157C0CE9905C0CE9BFECFEDEFE5BB2D
:10026C0050C0CF9906C0CF9BFECFEBE0F0E06F0102
:10027C0048C0C89AC99ACA98CB9ACC9906C0CC9B4C
:10028C00FECFE1E0F0E06F013CC0CD9906C0CD9B04
:10029C00FECFE2E0F0E06F0134C0CE9906C0CE9BF9
:1002AC00FECFE3E0F0E06F012CC0CF9906C0CF9BEE
:1002BC00FECFECE0F0E06F0124C0C89AC99ACA9A4C
:1002CC00CB98CC9906C0CC9BFECFEDE0F0E06F0153
:1002DC0018C0CD9905C0CD9BFECFCC24DD2411C018
:1002EC00CE9906C0CE9BFECFEEE0F0E06F0109C0C8
:1002FC00CF9906C0CF9BFECFEFE0F0E06F0101C0BD
:10030C0077CFE991EFBFF991E991189520E030E0B2
:10031C0040E050E0EFEFE7BBE0E0E8BBEBBBEFE029
:10032C00EABBEFEFE4BBE1BBEDE0E3BFE0E0E2BF33
:10033C00EDE4ECBFE0E0EFBDECE0EEBDE0E0EDBDE8
:10034C00ECBDE7BDE6BDEAE7EBBDE1E1EABDE0E00F
:10035C00E9BDE8BDE2BDEFE0E5BDE0E0E4BDEDE404
:10036C00E3BDEAE1E9BF7894F601A4E5B0E0EE0F55
:10037C00FF1FEA0FFB1FE491E095E5BBF5CFFFCF24
:00000001FF
