:0E0000000C943C000C9400000C946A000C94CC
:10000E0000000C9400000C9400000C9400000C9462
:10001E0000000C9400000C9400000C9400000C9452
:10002E0000000C9400000C9400000C9400000C9442
:10003E0000000C9400000C9400000C9400000C9432
:10004E0000000C9400002F393837783635342D33B4
:10005E0032312B3D30633F0006005B004F006600DF
:10006E006D007D0007007F006F00F894EE27ECBB5B
:10007E00F1E0FBBFEBBFE5BF8DE0A2E0BB27ED9348
:10008E008A95E9F780E098E0A0E6ED930197E9F70D
:10009E00EFE5EDBFE8E0EEBFC0E6D2E00C9457000E
:1000AE0003D025D0FECFFFCFE0E0E7BBEFE0EABB09
:1000BE00E7BBE0EFEBBBE8BBEFEFE4BBE0E8E7BB91
:1000CE00EFEFE1BB0895AA93BA93EA93FA93EFB7D1
:1000DE00EA93A0E6B2E0ED91FD913197FE93EE9397
:1000EE00E991EFBFF991E991B991A9911895B79A54
:1000FE00A8ECB0E00E948500B7980895109639F0EC
:10010E00A89580ED97E00197F1F71197C9F708953B
:00000001FF
