:0A0000000C9448000C9400000C94CE
:10000A0000000C9400000C9400000C9400000C9466
:10001A0000000C9400000C9400000C9400000C9456
:10002A0075000C9400000C9400000C9400000C94D1
:10003A0000000C9400000C9400000C9400000C9436
:10004A0000000C9400000C94000040007900240089
:10005A0030001900120002007800000010000100B0
:10006A0000000000000000003738392F3435367898
:10007A003132332D63303D2B0A0004006800100032
:10008A006A0272000000F894EE27ECBBF1E0FBBFB5
:10009A00EBBFE5BF8DE0A2E0BB27ED938A95E9F7B8
:1000AA0080E098E0A0E6ED930197E9F7E2E8F0E056
:1000BA0085919591009761F0A591B591059015905C
:1000CA00BF01F00105900D920197E1F7FB01F0CF16
:1000DA00EFE5EDBFE8E0EEBFC0E6D2E00C94A60083
:1000EA00AA93BA93EA93FA93EFB7EA93E42DE095C9
:1000FA00E2BBF301A0E6B2E0EE0FFF1FAE0FBF1F97
:10010A000E94A101A4E5B0E0EE0FFF1FEA0FFB1F5A
:10011A00E491E095E5BB440C551CF30131963F018F
:10012A00E4E0F0E0E615F70529F466247724E1E037
:10013A00F0E02F01E991EFBFF991E991B991A99105
:10014A001895EFEFE7BBEFE0EABBE0EFEBBBEFEFB1
:10015A00E4BBE1BBEDE0E3BFE0E0E2BFEDE4ECBF0E
:10016A00EAE1E9BF78941DD0BE2EAB2D7CD0AC2D30
:10017A0002D0F9CFFFCFAA93A881B0E0EAE0F0E07D
:10018A000E948001E0936002F0936102A881BB277C
:10019A00EAE0F0E00E948501E0936202F0936302D4
:1001AA0091C0D898D99ADA9ADB9ACC9903C0E0918F
:1001BA006A020895CD9903C0E0916B020895CE9921
:1001CA0003C0E0916C020895CF9903C0E0916D02DB
:1001DA000895D89AD998DA9ADB9ACC9903C0E09113
:1001EA006E020895CD9903C0E0916F020895CE99E9
:1001FA0003C0E09170020895CF9903C0E0917102A3
:10020A000895D89AD99ADA98DB9ACC9903C0E091E2
:10021A0072020895CD9903C0E09173020895CE99B0
:10022A0003C0E09174020895CF9903C0E09175026A
:10023A000895D89AD99ADA9ADB98CC9903C0E091B2
:10024A0076020895CD9903C0E09177020895CE9978
:10025A0003C0E09178020895CF9903C0E091790232
:10026A000895E0E10895AA93A881A03159F1A881DF
:10027A00AD3341F4E82DF0E0E0936802F0936902AF
:10028A00992420C0A881AB3221F4C82CDD249924FA
:10029A0019C0992059F0E92DAAE0EA02F001A881D3
:1002AA00AE0FA0538A2EE82DF0E00CC0A881A0332F
:1002BA0010F0AA3308F005C0E881E0539E2EF0E062
:1002CA0001C0D5CF21960895F195E195F0400895A2
:1002DA000024112490E1AA0FBB1F001C111C0E1A46
:1002EA001F0A18F40E0E1F1E01C0A1609A9599F7F5
:1002FA00FD01D001089512D0EBDF0EF4E5DF089579
:10030A00E894B7FF04C0A095B09511966894F7FDDC
:10031A00DBDFDEDFFD010EF4D7DF0895E894F7FF97
:10032A0002C0D2DF6894B7FF06C0A095B0951196B7
:10033A0000F8039400FA0895ED91FC91119708953D
:00000001FF
