:0E0000000C943F000C9400000C9400000C9433
:10000E0000000C9400000C9400000C9400000C9462
:10001E0000000C9400000C9400000C946C000C94E6
:10002E0000000C9400000C9400000C9400000C9442
:10003E0000000C9400000C9400000C9400000C9432
:10004E0000000C9400000D000000FFFFFFFFFFFFFB
:10005E00010204084000790024003000190012004B
:10006E0002007800000010000A0004005400000096
:10007E00F894EE27ECBBF1E0FBBFEBBFE5BF8DE0E4
:10008E00A2E0BB27ED938A95E9F780E098E0A0E621
:10009E00ED930197E9F7E6E7F0E0859195910097EA
:1000AE0061F0A591B59105901590BF01F0010590F5
:1000BE000D920197E1F7FB01F0CFEFE5EDBFE8E020
:1000CE00EEBFC0E6D2E00C946D00189520E030E053
:1000DE0040E050E0EFEFE7BBE0E0E8BBEBBBEFE06A
:1000EE00EABBEFEFE4BBE1BBEDE0E3BFE0E0E2BF74
:1000FE00EDE4ECBFE0E0EFBDECE0EEBDE0E0EDBD29
:10010E00ECBDE7BDE6BDEAE7EBBDE1E1EABDE0E04F
:10011E00E9BDE8BDEAE1E9BF7894A9E1B0E002D01B
:10012E00FCCFFFCFBA93AA93649784E1A0E0B0E02E
:10013E00E2E6F0E00E9428011A930A93AE89BF8985
:10014E00EAE0F0E00E940301E0936202F0936302A2
:10015E00AE89BF89EAE0F0E00E940801E0936402F4
:10016E00F0936502E1E0F0E02F0100E010E00430D2
:10017E00E0E01E07E4F442BAF801A0E6B2E0EE0FAA
:10018E00FF1FAE0FBF1F0E942401DE011296EE0F5D
:10019E00FF1FAE0FBF1FEC91E095E5BBAAE0B0E0EC
:1001AE000E94E200440C551C0F5F1F4FE0CF1981D7
:1001BE00088168960895109639F0A89580ED97E01D
:1001CE000197F1F71197C9F70895F195E195F04070
:1001DE0008950024112490E1AA0FBB1F001C111CCE
:1001EE000E1A1F0A18F40E0E1F1E01C0A1609A955A
:1001FE0099F7FD01D001089512D0EBDF0EF4E5DF83
:10020E000895E894B7FF04C0A095B0951196689430
:10021E00F7FDDBDFDEDFFD010EF4D7DF0895E89496
:10022E00F7FF02C0D2DF6894B7FF06C0A095B09565
:10023E00119600F8039400FA0895ED91FC91119730
:10024E000895AC0FBD1F05900D928A95E1F70895A4
:00000001FF
