:100000000C9444000C9400000C9400000C9400002C
:100010000C9400000C9400000C9400000C94000060
:100020000C9400000C9400000C9471000C940000DF
:100030000C9400000C9400000C9400000C94000040
:100040000C9400000C9400000C9400000C94000030
:100050000C940000400079002400300019001200C8
:100060000200780000001000EF000000400079005E
:100070002400300019001200020078000000100077
:100080000400040068000000F894EE27ECBBF1E0E7
:10009000FBBFEBBFE5BF8DE0A2E0BB27ED938A95E8
:1000A000E9F780E098E0A0E6ED930197E9F7E0E852
:1000B000F0E085919591009761F0A591B59105903B
:1000C0001590BF01F00105900D920197E1F7FB013A
:1000D000F0CFEFE5EDBFE8E0EEBFC0E6D2E00C9474
:1000E000A200AA93BA93EA93FA93EFB7EA93E42DA6
:1000F000E095EBBBF301A0E6B2E0EE0FFF1FAE0F01
:10010000BF1F0E943501A4E5B0E0EE0FFF1FEA0F0C
:10011000FB1FE491E095E5BB440C551CF3013196BF
:100120003F01E4E0F0E0E615F70529F466247724C2
:10013000EFEEF0E02F01E991EFBFF991E991B9916C
:10014000A9911895E0E0E7BBEFE0E7BBEBBBE0EF80
:10015000EABBE8BBEFEFE4BBE0E8E7BBEFEFE1BBF6
:10016000EDE0E3BFE0E0E2BFEDE4ECBFE0E0EFBDD7
:10017000ECE0EEBDE0E0EDBDECBDE7BDE6BDEAE7DD
:10018000EBBDE1E1EABDE0E0E9BDE8BDE2BDE5BD12
:10019000E4BDE3BDEAE1E9BFE0E0E5BFE4BFEAB901
:1001A000E0E8E8B9E0E0E0BFE6B9EDB9E6BF789491
:1001B000A9E1B0E002D0FCCFFFCFBA93AA93649735
:1001C00084E1A0E0B0E0ECE6F0E00E943901AC8907
:1001D000BD89EAE0F0E00E941401E0936202F0932E
:1001E0006302AC89BD89EAE0F0E00E941901E09366
:1001F0006402F093650266960895F195E195F040EA
:1002000008950024112490E1AA0FBB1F001C111CAB
:100210000E1A1F0A18F40E0E1F1E01C0A1609A9537
:1002200099F7FD01D001089512D0EBDF0EF4E5DF60
:100230000895E894B7FF04C0A095B095119668940E
:10024000F7FDDBDFDEDFFD010EF4D7DF0895E89474
:10025000F7FF02C0D2DF6894B7FF06C0A095B09543
:10026000119600F8039400FA0895ED91FC9111970E
:100270000895AC0FBD1F05900D928A95E1F7089582
:00000001FF
