:080000000C9445000C94000073
:100008000C9400000C9400000C9400000C94000068
:100018000C9400000C9400000C9400000C94000058
:100028000C9400000C9400000C9400000C94000048
:100038000C9400000C9400000C9400000C94000038
:100048000C9400000C9400000C9400000D000000BB
:100058000000FFFFFFFF01020408400079002400B0
:1000680030001900120002007800000010007836F5
:1000780035342D3332312B3D30630A0004005400EF
:100088000000F894EE27ECBBF1E0FBBFEBBFE5BF47
:100098008DE0A2E0BB27ED938A95E9F780E098E030
:1000A800A0E6ED930197E9F7E2E8F0E085919591F4
:1000B800009761F0A591B59105901590BF01F001E9
:1000C80005900D920197E1F7FB01F0CFEFE5EDBF49
:1000D800E8E0EEBFC0E6D2E00C94720020E030E029
:1000E80040E050E0EFEFE7BBE0E0E8BBEBBBEFE060
:1000F800EABBEFEFE4BBE1BBE0E0EFBDECE0EEBD57
:10010800E0E0EDBDECBDE7BDE6BDEAE7EBBDE1E152
:10011800EABDE0E0E9BDE8BDEAE1E9BF78942197EE
:1001280004D0E8832196FBCFFFCF1A93F4013196D0
:100138004F01E3E0F0E0E815F90514F48824992468
:10014800E82DA1E00E94B700EBBBE0E0F0E009C0B9
:1001580013FF05C0F4010E94BF00339602C0E0E01F
:10016800F0E019910895EE230E2EEA2F19F0EE0F04
:100178000A94E9F70895EE0FFF1FEE0FFF1F089589
:00000001FF
