:020000000C945E
:1000020049000C9400000C9400000C9400000C9425
:1000120000000C9400000C9400000C9400000C945E
:1000220000000C9400000C9476000C9400000C94D8
:1000320000000C9400000C9400000C9400000C943E
:1000420000000C9400000C9400000C9400000C942E
:100052000000400079002400300019001200020064
:10006200780000001000010000000000FFFFFFFF09
:10007200F7F6FBF740007900240030001900120067
:1000820002007800000010000A000400680000006E
:10009200F894EE27ECBBF1E0FBBFEBBFE5BF8DE0D0
:1000A200A2E0BB27ED938A95E9F780E098E0A0E60D
:1000B200ED930197E9F7EAE8F0E0859195910097D1
:1000C20061F0A591B59105901590BF01F0010590E1
:1000D2000D920197E1F7FB01F0CFEFE5EDBFE8E00C
:1000E200EEBFC0E6D2E00C94A500AA93BA93EA93BD
:1000F200FA93EFB7EA9342BAF301A0E6B2E0EE0F49
:10010200FF1FAE0FBF1F0E946E01A4E5B0E0EE0F0D
:10011200FF1FEA0FFB1FE491E095E5BB440C551C61
:10012200F30131963F01E4E0F0E0E615F70529F42A
:1001320066247724E1E0F0E02F01E991EFBFF99125
:10014200E991B991A9911895EFE0EABBE0EFEBBB19
:10015200EFEFE4BBE1BBEDE0E3BFE0E0E2BFEDE4E3
:10016200ECBFEAE1E9BF789421972DD0E883A8811A
:10017200A03111F0BB2703D02196F6CFFFCFBA935F
:10018200AA93649784E1A0E0B0E0E6E7F0E00E9481
:1001920072011A930A93AE89BF89EAE0F0E00E94E5
:1001A2004D01E0936202F0936302AE89BF89EAE0F7
:1001B200F0E00E945201E0936402F093650219811B
:1001C200088168960895D898D99ADA9ADB9ACC99D8
:1001D20002C0E0E00895CD9902C0E1E00895CE9911
:1001E20002C0E2E00895CF9902C0E3E00895D89AF0
:1001F200D998DA9ADB9ACC9902C0E4E00895CD99B5
:1002020002C0E5E00895CE9902C0E6E00895CF99D4
:1002120002C0E7E00895D89AD99ADA98DB9ACC9985
:1002220002C0E8E00895CD9902C0E9E00895CE99B0
:1002320002C0EAE00895CF9902C0EBE00895D89A8F
:10024200D99ADA9ADB98CC9902C0ECE00895CD995C
:1002520002C0EDE00895CE9902C0EEE00895CF9974
:1002620002C0EFE00895E0E10895F195E195F040D4
:1002720008950024112490E1AA0FBB1F001C111C39
:100282000E1A1F0A18F40E0E1F1E01C0A1609A95C5
:1002920099F7FD01D001089512D0EBDF0EF4E5DFEE
:1002A2000895E894B7FF04C0A095B095119668949C
:1002B200F7FDDBDFDEDFFD010EF4D7DF0895E89402
:1002C200F7FF02C0D2DF6894B7FF06C0A095B095D1
:1002D200119600F8039400FA0895ED91FC9111979C
:1002E2000895AC0FBD1F05900D928A95E1F7089510
:00000001FF
