:060000000C944C000C946E
:1000060000000C9400000C9400000C9400000C946A
:1000160000000C9400000C94A1000C94DF000C94DA
:1000260000000C9479000C9400000C9400000C94D1
:1000360000000C9400000C9400000C9400000C943A
:1000460000000C9400000C9400000C94000040008A
:100056007900240030001900120002007800000028
:100066001000010000000000000000000100373809
:10007600392F343536783132332D63303D2B0A0033
:100086000400680001006E02720010007002740025
:100096000000F894EE27ECBBF1E0FBBFEBBFE5BF39
:1000A6008DE0A2E0BB27ED938A95E9F780E098E022
:1000B600A0E6ED930197E9F7E4E8F0E085919591E4
:1000C600009761F0A591B59105901590BF01F001DB
:1000D60005900D920197E1F7FB01F0CFEFE5EDBF3B
:1000E600E8E0EEBFC0E6D2E00C94E0000A92AA93E4
:1000F600BA93EA93FA93EFB7EA9342BAF301A0E60A
:10010600B2E0EE0FFF1FAE0FBF1F0E94BF02A4E5B5
:10011600B0E0EE0FFF1FEA0FFB1F049005BAD1D126
:1001260029F466247724E1E0F0E02F01E991EFBF9E
:10013600F991E991B991A991099018950A921A92A3
:10014600FA926A937A938A939A93AA93BA93EA93C2
:10015600FA93EFB7EA93E0916A02F0916B02309757
:10016600B1F4E0916C02F0916D02309711F499D1DF
:100176000DC0EBE3F0E0E0936A02F0936B02ACE6AD
:10018600B2E0ED91FD913197FE93EE9307C0AAE69A
:10019600B2E0ED91FD913197FE93EE93E991EFBFB9
:1001A600F991E991B991A991999189917991699179
:1001B600F9901990099018951895EFEFE7BBEFE0C5
:1001C600EABBE0EFEBBBEFEFE4BBE1BBEDE0E3BF87
:1001D600E0E0E2BFE3E6ECBFE0E0EDBDECBDE7BD8D
:1001E600E6BDEAE7EBBDE1E1EABDE0E0E9BDE8BD79
:1001F600EAE1E9BF789441D0BE2EAB2DA0D0A09104
:100206006A0230D0A0916C0222D0F5CFFFCFBA930C
:10021600AA93A881B981119791F4E0E0E3BF42BAAD
:10022600E0E4E5BBA6E9B0E00E947D0242BA49D10E
:1002360029F466247724E1E0F0E02F0106C0E88186
:10024600F981309711F4EDE0E3BF2296089543D18A
:10025600E0936202F093630246D1E0936002F0936A
:100266006102E4C038D1E0936602F09367023BD1A5
:10027600E0936402F0936502D9C0D898D99ADA9AC5
:10028600DB9ACC9903C0E09170020895CD9903C022
:10029600E09171020895CE9903C0E091720208952B
:1002A600CF9903C0E09173020895D89AD998DA9A43
:1002B600DB9ACC9903C0E09174020895CD9903C0EE
:1002C600E09175020895CE9903C0E09176020895F3
:1002D600CF9903C0E09177020895D89AD99ADA980F
:1002E600DB9ACC9903C0E09178020895CD9903C0BA
:1002F600E09179020895CE9903C0E0917A020895BB
:10030600CF9903C0E0917B020895D89AD99ADA9AD8
:10031600DB98CC9903C0E0917C020895CD9903C087
:10032600E0917D020895CE9903C0E0917E02089582
:10033600CF9903C0E0917F020895E0E10895AA9362
:10034600A881A03109F46DC0E0E0E0936E02E0936D
:100356006F02A881AD3251F4E0E0E0936C02E093C5
:100366006D02E0936A02E0936B025BC0E0916A0261
:10037600F0916B02309741F0A881A33629F4E0E0B2
:10038600E8BBECE0EEBD4DC0A881AD3371F4E82DBD
:10039600F0E0E0936802F0936902E0936A02F0935A
:1003A6006B029924E5E5E8BB3CC0A881AB3299F421
:1003B600C82CDD24EBE3F0E0EC15FD0524F4E09316
:1003C6006C02F0936D02C0926C02D0926D02992479
:1003D600EAEAE8BB26C0992011F4AA2089F0E1E0F8
:1003E600EA1529F4E881E0538E2EAA241AC0E92DD5
:1003F600AAE0EA02F001A881AE0FA0538A2E11C02E
:10040600A881A03310F0AA3308F00AC0E881E053AF
:100416009E2E992011F4E1E0AE2EE92DF0E006C003
:1004260098CFA0916E02B0916F02F1DE21960895E9
:100436002597EFEFE883E7EEE983E3ECEA83E1E86B
:10044600EB83E0E0EC831A930A9300E010E00630B9
:10045600E0E01E076CF4DE011296A00FB11FEC91CE
:10046600E8BBA4E6B0E00E947D020F5F1F4FEFCF0E
:1004760004E010E0112372F0DE011296A00FB11F06
:10048600EC91E095E8BBA4E6B0E00E947D02015045
:100496001040F0CF1981088127960895EFEFE2BB4F
:1004A6000895E0E0E3BFEEBDF9DFC2DFE0E4E5BBBF
:1004B600EFE0E2BBE1E0F0E0E0936E02F0936F0262
:1004C6000895440C551CF30131963F01E4E0F0E039
:1004D600E615F7050895AA93A881BB27EAE0F0E0A0
:1004E6000E94A3020895A881B0E0EAE0F0E00E942D
:1004F6009E020895109639F0A89580ED97E0019731
:10050600F1F71197C9F70895F195E195F04008952F
:100516000024112490E1AA0FBB1F001C111C0E1A07
:100526001F0A18F40E0E1F1E01C0A1609A9599F7B6
:10053600FD01D001089512D0EBDF0EF4E5DF08953A
:10054600E894B7FF04C0A095B09511966894F7FD9E
:10055600DBDFDEDFFD010EF4D7DF0895E894F7FF59
:1005660002C0D2DF6894B7FF06C0A095B095119679
:1005760000F8039400FA0895ED91FC9111970895FF
:00000001FF
