:100000000C9430000C9400000C9400000C94000040
:100010000C9400000C9400000C9400000C94000060
:100020000C9400000C9400000C945D000C940000F3
:100030000C9400000C9400000C9400000C94000040
:100040000C9400000C9400000C9400000C94000030
:100050000C940000EF0000000400040054000000B5
:10006000F894EE27ECBBF1E0FBBFEBBFE5BF8DE002
:10007000A2E0BB27ED938A95E9F780E098E0A0E63F
:10008000ED930197E9F7E8E5F0E085919591009708
:1000900061F0A591B59105901590BF01F001059013
:1000A0000D920197E1F7FB01F0CFEFE5EDBFE8E03E
:1000B000EEBFC0E6D2E00C947800EA93FA93EFB773
:1000C000EA93E42DE095EBBB440C551CF30131960B
:1000D0003F01E4E0F0E0E615F70529F46624772413
:1000E000EFEEF0E02F01E991EFBFF991E99118955A
:1000F000E0E0E7BBEFE0E7BBEBBBE0EFEABBE8BB70
:10010000EFEFE4BBE0E8E7BBEFEFE1BBEDE0E3BF1F
:10011000E0E0E2BFEDE4ECBFE0E0EFBDECE0EEBD1F
:10012000E0E0EDBDECBDE7BDE6BDEAE7EBBDE1E13A
:10013000EABDE0E0E9BDE8BDE2BDE5BDE4BDE3BD8B
:10014000EAE1E9BFE0E0E5BFE4BFEAB9E0E8E8B929
:10015000E0E0E0BFE6B9EDB9E6BF7894FFCFFFCFAE
:00000001FF
