:040000000C94490013
:100004000C9400000C9400000C9400000C948300E9
:100014000C947E000C9400000C947C000C947D00E5
:100024000C9476000C9400000C9400000C940000D6
:100034000C9400000C9400000C9400000C9400003C
:100044000C9400000C9400000C9400000C9400002C
:100054000000400079002400300019001200020062
:10006400780000001000010204082F393837783670
:1000740035342D3332312B3D3063020006005400F9
:10008400130060025600040074026A000000F89431
:10009400EE27ECBBF1E0FBBFEBBFE5BF8DE0A2E0D8
:1000A400BB27ED938A95E9F780E098E0A0E6ED930D
:1000B4000197E9F7EEE7F0E085919591009761F0FB
:1000C400A591B59105901590BF01F00105900D9291
:1000D4000197E1F7FB01F0CFEFE5EDBFE8E0EEBFFC
:1000E400C0E6D2E00C948400EA93E5E8EDBDEEEEC0
:1000F400ECBD05C018951895EA93E2EBE4BDE991CF
:100104001895189500E010E0EFEFEABBE4BBE1BB03
:10011400E0E0EBBBE5BBE2BBE0EFE7BBEFE0E8BB55
:10012400E0E0EFBDECE0EEBDE5E8EDBDEEEEECBDEC
:10013400E0E0E7BDE6BDEAE7EBBDE1E1EABDE0E012
:10014400E9BDE8BDE2BDEFE0E5BDE2EBE4BDEDE411
:10015400E3BDECEDE9BF78940DD05E2EA0E6B2E0ED
:10016400F0E0EE0FFF1FAE0FBF1FEC91E095E5BB73
:10017400F3CFFFCF2697EEEFE883EFEFE983EA832F
:10018400EB83E0E0EC83ED83EC83ED83AC81BD8114
:10019400149784F5EC81FD81EC58FD4FE081E095E6
:1001A400EBBBB09906C0B09BFECFE0E0EA83EB83E3
:1001B40021C0B19907C0B19BFECFE1E0F0E0EA8332
:1001C400FB8318C0B29907C0B29BFECFE2E0F0E017
:1001D400EA83FB830FC0B39907C0B39BFECFE3E070
:1001E400F0E0EA83FB8306C0EC81FD813196EC8369
:1001F400FD83CCCFAA81BB81AF3FEFEFBE0709F4EB
:1002040058C0EC81FD810E945D01EA0FFB1FE88369
:10021400F983809A309721F4E7E0F0E03F0146C08B
:10022400E130A0E0FA0721F4E8E0F0E03F013EC04D
:10023400E230A0E0FA0721F4E9E0F0E03F0136C043
:10024400E430A0E0FA0721F4E4E0F0E03F012EC03E
:10025400E530A0E0FA0721F4E5E0F0E03F0126C034
:10026400E630A0E0FA0721F4E6E0F0E03F011EC02A
:10027400E830A0E0FA0721F4E1E0F0E03F0116C025
:10028400E930A0E0FA0721F4E2E0F0E03F010EC01B
:10029400EA30A0E0FA0721F4E3E0F0E03F0106C011
:1002A400EC30A0E0FA0711F466247724E62D2696B4
:1002B400089526965FCFEE0FFF1FEE0FFF1F0895E0
:00000001FF
