:0C0000000C9449000C9400000C940000CB
:10000C000C9400000C9400000C9400000C94000064
:10001C000C949C000C94AB000C9400000C94760097
:10002C000C9400000C9400000C9400000C94000044
:10003C000C9400000C9400000C9400000C94000034
:10004C000C9400000C940000400079002400300057
:10005C0019001200020078000000100001000000DE
:10006C0000000000000032003738392F3435367864
:10007C003132332D63303D2B0A0004006800100030
:10008C006C0274000000F894EE27ECBBF1E0FBBFAF
:10009C00EBBFE5BF8DE0A2E0BB27ED938A95E9F7B6
:1000AC0080E098E0A0E6ED930197E9F7E4E8F0E052
:1000BC0085919591009761F0A591B591059015905A
:1000CC00BF01F00105900D920197E1F7FB01F0CF14
:1000DC00EFE5EDBFE8E0EEBFC0E6D2E00C94AC007B
:1000EC003AD1E42DE095E2BBF301A0E6B2E0EE0FCD
:1000FC00FF1FAE0FBF1F0E94C201A4E5B0E0EE0FC0
:10010C00FF1FEA0FFB1FE491E095E5BB440C551C67
:10011C00F30131963F01E4E0F0E0E615F70529F430
:10012C0066247724E1E0F0E02F0108C014D1AAE6A0
:10013C00B2E0ED91FD913197FE93EE93E991EFBF13
:10014C00F991E991B991A99118951895EFEFE7BB41
:10015C00EFE0EABBE0EFEBBBEFEFE4BBE1BBEDE0C4
:10016C00E3BFE0E0E2BFEDE4ECBFE0E0EFBDECE0CC
:10017C00EEBDE0E0EDBDECBDE7BDE6BDEAE7EBBDF5
:10018C00E1E1EABDE0E0E9BDE8BDEAE1E9BF789470
:10019C0014D0BE2EAB2D73D0DA92CA92E2E3F0E00B
:1001AC00FA93EA93AB2D02D0F3CFFFCFAA93A88199
:1001BC00A33609F495D025960895D898D99ADA9A49
:1001CC00DB9ACC9903C0E0916C020895CD9903C0E1
:1001DC00E0916D020895CE9903C0E0916E020895EE
:1001EC00CF9903C0E0916F020895D89AD998DA9A02
:1001FC00DB9ACC9903C0E09170020895CD9903C0AD
:10020C00E09171020895CE9903C0E09172020895B5
:10021C00CF9903C0E09173020895D89AD99ADA98CD
:10022C00DB9ACC9903C0E09174020895CD9903C078
:10023C00E09175020895CE9903C0E091760208957D
:10024C00CF9903C0E09177020895D89AD99ADA9A97
:10025C00DB98CC9903C0E09178020895CD9903C046
:10026C00E09179020895CE9903C0E0917A02089545
:10027C00CF9903C0E0917B020895E0E10895AA9321
:10028C00A881A03159F1A881AD3341F4E82DF0E0FB
:10029C00E0936802F0936902992420C0A881AB32E4
:1002AC0021F4C82CDD24992419C0992059F0E92D8A
:1002BC00AAE0EA02F001A881AE0FA0538A2EE82D25
:1002CC00F0E00CC0A881A03310F0AA3308F005C0F0
:1002DC00E881E0539E2EF0E001C0D5CF2196089521
:1002EC002897E0E8E883E0E4E983E0E2EA83E0E1F0
:1002FC00EB83E8E0EC83E4E0ED83E2E0EE83E1E025
:10030C00EF831A930A9300E010E00830E0E01E0738
:10031C006CF4DE011296A00FB11FEC91E8BBA4E6C1
:10032C00B0E00E94B8010F5F1F4FEFCF06E010E066
:10033C0011236AF0DE011296A00FB11FEC91E5BB00
:10034C00A4E6B0E00E94B80101501040F1CF198131
:10035C0008812A960895AA93BA93EA93FA93EFB771
:10036C00EA930895109639F0A89580ED97E00197DF
:10037C00F1F71197C9F70895ED91FC911197089534
:00000001FF
