:020000000C945E
:1000020049000C9400000C9400000C9400000C9425
:1000120000000C9400000C9400000C94A6000C94B8
:10002200E4000C9400000C9476000C9400000C94F4
:1000320000000C9400000C9400000C9400000C943E
:1000420000000C9400000C9400000C9400000C942E
:100052000000400079002400300019001200020064
:100062007800000010000100000000000000000005
:1000720032003738392F343536783132332D633008
:100082003D2B0A000400680010006E02740000009C
:10009200F894EE27ECBBF1E0FBBFEBBFE5BF8DE0D0
:1000A200A2E0BB27ED938A95E9F780E098E0A0E60D
:1000B200ED930197E9F7E4E8F0E0859195910097D7
:1000C20061F0A591B59105901590BF01F0010590E1
:1000D2000D920197E1F7FB01F0CFEFE5EDBFE8E00C
:1000E200EEBFC0E6D2E00C94E5000A92AA93BA935E
:1000F200EA93FA93EFB7EA9342BAF301A0E6B2E0C9
:10010200EE0FFF1FAE0FBF1F0E946502A4E5B0E015
:10011200EE0FFF1FEA0FFB1F049005BA440C551C9B
:10012200F30131963F01E4E0F0E0E615F70529F42A
:1001320066247724E1E0F0E02F01E991EFBFF99125
:10014200E991B991A991099018950A921A92FA9295
:100152006A937A938A939A93AA93BA93EA93FA93B5
:10016200EFB7EA93AAE6B2E0ED91FD913197FE93E3
:10017200EE93E0916A02F0916B023097B1F4E09154
:100182006C02F0916D02309719F40BD140D10DC081
:10019200EBE3F0E0E0936A02F0936B02ACE6B2E0CC
:1001A200ED91FD913197FE93EE93E991EFBFF991B5
:1001B200E991B991A9919991899179916991F9906E
:1001C2001990099018951895EFEFE7BBEFE0EABB9D
:1001D200E0EFEBBBEFEFE4BBE1BBEDE0E3BFE0E060
:1001E200E2BFECE7ECBFE0E0EDBDECBDE7BDE6BD94
:1001F200EAE7EBBDE1E1EABDE0E0E9BDE8BDEAE145
:10020200E9BF789421D0BE2EAB2D80D0A0916A0296
:1002120010D0A0916C0202D0F5CFFFCFFDD0E093B9
:100222006202F093630200D1E0936002F0936102F4
:10023200B6C0F2D0E0936602F0936702F5D0E09385
:100242006402F0936502ABC0D898D99ADA9ADB9A25
:10025200CC9903C0E0916E020895CD9903C0E0915C
:100262006F020895CE9903C0E09170020895CF996C
:1002720003C0E09171020895D89AD998DA9ADB9A6C
:10028200CC9903C0E09172020895CD9903C0E09128
:1002920073020895CE9903C0E09174020895CF9934
:1002A20003C0E09175020895D89AD99ADA98DB9A38
:1002B200CC9903C0E09176020895CD9903C0E091F4
:1002C20077020895CE9903C0E09178020895CF99FC
:1002D20003C0E09179020895D89AD99ADA9ADB9804
:1002E200CC9903C0E0917A020895CD9903C0E091C0
:1002F2007B020895CE9903C0E0917C020895CF99C4
:1003020003C0E0917D020895E0E10895AA93A881D7
:10031200A03109F444C0E0916A02F0916B02309777
:1003220031F0A881A33619F4ECE0EEBD38C0A88103
:10033200AD3361F4E82DF0E0E0936802F0936902D6
:10034200E0936A02F0936B02992429C0A881AB3230
:1003520041F4C82CDD24C0926C02D0926D02992423
:100362001EC0992011F4AA2049F0E92DAAE0EA0260
:10037200F001A881AE0FA0538A2E11C0A881A0332C
:1003820010F0AA3308F00AC0E881E0539E2E9920AB
:1003920011F4E1E0AE2EE92DF0E001C0BCCF2196D0
:1003A20008952597EFEFE883E7EEE983E3ECEA832C
:1003B200E1E8EB83E0E0EC831A930A9300E010E0BB
:1003C2000630E0E01E076CF4DE011296A00FB11FAA
:1003D200EC91E8BBA4E6B0E00E9423020F5F1F4F3E
:1003E200EFCF04E010E0112372F0DE011296A00FAD
:1003F200B11FEC91E095E8BBA4E6B0E00E942302B5
:1004020001501040F0CF1981088127960895E0E04D
:10041200E3BF11D010D00895AA93A881BB27EAE0C8
:10042200F0E00E9449020895A881B0E0EAE0F0E01D
:100432000E9444020895859AA4EFB1E00E9423022B
:1004420085980895109639F0A89580ED97E0019768
:10045200F1F71197C9F70895F195E195F0400895E4
:100462000024112490E1AA0FBB1F001C111C0E1ABC
:100472001F0A18F40E0E1F1E01C0A1609A9599F76B
:10048200FD01D001089512D0EBDF0EF4E5DF0895EF
:10049200E894B7FF04C0A095B09511966894F7FD53
:1004A200DBDFDEDFFD010EF4D7DF0895E894F7FF0E
:1004B20002C0D2DF6894B7FF06C0A095B09511962E
:1004C20000F8039400FA0895ED91FC9111970895B4
:00000001FF
